{
  "transactions": [
    {
      "hash": "0xbbce3f16e6b928c8fbd44c155e4147a5b098a462d589b123f2390c831f8571e9",
      "transactionType": "CALL",
      "contractName": null,
      "contractAddress": "0x779877a7b0d9e8603169ddbd7836e478b4624789",
      "function": "transferAndCall(address,uint256,bytes)",
      "arguments": [
        "0x9DdfaCa8183c41ad55329BdeeD9F6A8d53168B1B",
        "3000000000000000000",
        "0x8a4e5589a89fd44a348f496c030f2d901127c5717994eed0832c9f8a77d197a6"
      ],
      "transaction": {
        "from": "0x1360eda247bf2fefecc5fd5926ac1ef628b19733",
        "to": "0x779877a7b0d9e8603169ddbd7836e478b4624789",
        "gas": "0x1c1ff",
        "value": "0x0",
        "input": "0x4000aea00000000000000000000000009ddfaca8183c41ad55329bdeed9f6a8d53168b1b00000000000000000000000000000000000000000000000029a2241af62c0000000000000000000000000000000000000000000000000000000000000000006000000000000000000000000000000000000000000000000000000000000000208a4e5589a89fd44a348f496c030f2d901127c5717994eed0832c9f8a77d197a6",
        "nonce": "0x8",
        "chainId": "0xaa36a7"
      },
      "additionalContracts": [],
      "isFixedGasLimit": false
    }
  ],
  "receipts": [
    {
      "status": "0x1",
      "cumulativeGasUsed": "0x8113c3",
      "logs": [
        {
          "address": "0x779877a7b0d9e8603169ddbd7836e478b4624789",
          "topics": [
            "0xddf252ad1be2c89b69c2b068fc378daa952ba7f163c4a11628f55a4df523b3ef",
            "0x0000000000000000000000001360eda247bf2fefecc5fd5926ac1ef628b19733",
            "0x0000000000000000000000009ddfaca8183c41ad55329bdeed9f6a8d53168b1b"
          ],
          "data": "0x00000000000000000000000000000000000000000000000029a2241af62c0000",
          "blockHash": "0x7c43025819f0c9368c91440ed3d68ecb5a1e2a389b18cde31ad5801bca1d6452",
          "blockNumber": "0x5e9e35",
          "transactionHash": "0xbbce3f16e6b928c8fbd44c155e4147a5b098a462d589b123f2390c831f8571e9",
          "transactionIndex": "0x5b",
          "logIndex": "0x75",
          "removed": false
        },
        {
          "address": "0x779877a7b0d9e8603169ddbd7836e478b4624789",
          "topics": [
            "0xe19260aff97b920c7df27010903aeb9c8d2be5d310a2c67824cf3f15396e4c16",
            "0x0000000000000000000000001360eda247bf2fefecc5fd5926ac1ef628b19733",
            "0x0000000000000000000000009ddfaca8183c41ad55329bdeed9f6a8d53168b1b"
          ],
          "data": "0x00000000000000000000000000000000000000000000000029a2241af62c0000000000000000000000000000000000000000000000000000000000000000004000000000000000000000000000000000000000000000000000000000000000208a4e5589a89fd44a348f496c030f2d901127c5717994eed0832c9f8a77d197a6",
          "blockHash": "0x7c43025819f0c9368c91440ed3d68ecb5a1e2a389b18cde31ad5801bca1d6452",
          "blockNumber": "0x5e9e35",
          "transactionHash": "0xbbce3f16e6b928c8fbd44c155e4147a5b098a462d589b123f2390c831f8571e9",
          "transactionIndex": "0x5b",
          "logIndex": "0x76",
          "removed": false
        },
        {
          "address": "0x9ddfaca8183c41ad55329bdeed9f6a8d53168b1b",
          "topics": [
            "0x1ced9348ff549fceab2ac57cd3a9de38edaaab274b725ee82c23e8fc8c4eec7a",
            "0x8a4e5589a89fd44a348f496c030f2d901127c5717994eed0832c9f8a77d197a6"
          ],
          "data": "0x000000000000000000000000000000000000000000000000000000000000000000000000000000000000000000000000000000000000000029a2241af62c0000",
          "blockHash": "0x7c43025819f0c9368c91440ed3d68ecb5a1e2a389b18cde31ad5801bca1d6452",
          "blockNumber": "0x5e9e35",
          "transactionHash": "0xbbce3f16e6b928c8fbd44c155e4147a5b098a462d589b123f2390c831f8571e9",
          "transactionIndex": "0x5b",
          "logIndex": "0x77",
          "removed": false
        }
      ],
      "logsBloom": "0x00000004000000000000000000000000000000000020000000000000020000000000000000000000000000000000000000000000000200000000000000000000000000000000400000000008000000000000000000000000000020000020000008000000000000002000040000000000000000000000000000000010800040000000000000000000000000010000800000000020000000000000000000000000000000000000000000000000010000000000000000000000000004000000000000000002000000000000000000000000000000000000000120000000000000000010000000000000800000000000000000000000000000000000000000000000",
      "type": "0x2",
      "transactionHash": "0xbbce3f16e6b928c8fbd44c155e4147a5b098a462d589b123f2390c831f8571e9",
      "transactionIndex": "0x5b",
      "blockHash": "0x7c43025819f0c9368c91440ed3d68ecb5a1e2a389b18cde31ad5801bca1d6452",
      "blockNumber": "0x5e9e35",
      "gasUsed": "0x133b1",
      "effectiveGasPrice": "0x100f6cbc3",
      "from": "0x1360eda247bf2fefecc5fd5926ac1ef628b19733",
      "to": "0x779877a7b0d9e8603169ddbd7836e478b4624789",
      "contractAddress": null
    }
  ],
  "libraries": [],
  "pending": [],
  "returns": {
    "0": {
      "internal_type": "uint256",
      "value": "0"
    }
  },
  "timestamp": 1719527689,
  "chain": 11155111,
  "commit": "9eb94a9"
}