{
  "transactions": [
    {
      "hash": "0x54b0e09ff624ee727068393796df795e89438971b6bc5d5dcccb92bff4e2908a",
      "transactionType": "CALL",
      "contractName": null,
      "contractAddress": "0x9de98b4a55f9f991f56602591db4752f52ed175f",
      "function": "mintNFT(string)",
      "arguments": [
        "\"ipfs://bafybeig37ioir76s7mg5oobetncojcm3c3hxasyd4rvid4jqhy4gkaheg4/?filename=0-PUG.json\""
      ],
      "transaction": {
        "from": "0x1360eda247bf2fefecc5fd5926ac1ef628b19733",
        "to": "0x9de98b4a55f9f991f56602591db4752f52ed175f",
        "gas": "0x3d62c",
        "value": "0x0",
        "input": "0xfb37e88300000000000000000000000000000000000000000000000000000000000000200000000000000000000000000000000000000000000000000000000000000057697066733a2f2f62616679626569673337696f6972373673376d67356f6f6265746e636f6a636d3363336878617379643472766964346a71687934676b61686567342f3f66696c656e616d653d302d5055472e6a736f6e000000000000000000",
        "nonce": "0xa",
        "chainId": "0xaa36a7"
      },
      "additionalContracts": [],
      "isFixedGasLimit": false
    }
  ],
  "receipts": [
    {
      "status": "0x1",
      "cumulativeGasUsed": "0xef1a0f",
      "logs": [
        {
          "address": "0x9de98b4a55f9f991f56602591db4752f52ed175f",
          "topics": [
            "0xddf252ad1be2c89b69c2b068fc378daa952ba7f163c4a11628f55a4df523b3ef",
            "0x0000000000000000000000000000000000000000000000000000000000000000",
            "0x0000000000000000000000001360eda247bf2fefecc5fd5926ac1ef628b19733",
            "0x0000000000000000000000000000000000000000000000000000000000000000"
          ],
          "data": "0x",
          "blockHash": "0xe7cdcdba4e5107e482c745747a28fa8292548b1749c6be91d9f47e2e6a9e5d1e",
          "blockNumber": "0x619789",
          "transactionHash": "0x54b0e09ff624ee727068393796df795e89438971b6bc5d5dcccb92bff4e2908a",
          "transactionIndex": "0x54",
          "logIndex": "0x11f",
          "removed": false
        }
      ],
      "logsBloom": "0x00000000000000000000000000000008000000000000000000000000000000000000000000000000000000000000000000400000000200000000000000000000000000000000400000000008000000000000000000000000000000000000000000000000020000002000000000000800000000000000000000000010000000000000000000000000000000000000000000000000000000000000000000000000000000000000000000000000000000000000000000000000000000001000000000000002000000000000000000000000000000000000000000000000000020000000000000000000000000000000000000000000000000000000000000000000",
      "type": "0x2",
      "transactionHash": "0x54b0e09ff624ee727068393796df795e89438971b6bc5d5dcccb92bff4e2908a",
      "transactionIndex": "0x54",
      "blockHash": "0xe7cdcdba4e5107e482c745747a28fa8292548b1749c6be91d9f47e2e6a9e5d1e",
      "blockNumber": "0x619789",
      "gasUsed": "0x2c714",
      "effectiveGasPrice": "0xfd01c143",
      "from": "0x1360eda247bf2fefecc5fd5926ac1ef628b19733",
      "to": "0x9de98b4a55f9f991f56602591db4752f52ed175f",
      "contractAddress": null
    }
  ],
  "libraries": [],
  "pending": [],
  "returns": {},
  "timestamp": 1722232334,
  "chain": 11155111,
  "commit": "8fd8cc8"
}